:100000000C94DB000C9403010C9403010C94030189
:100010000C9403010C9403010C9403010C94030150
:100020000C9403010C9403010C94B5070C94240860
:100030000C9403010C9403010C9403010C94030130
:100040000C9403010C9403010C9403010C94030120
:100050000C9403010C9403010C9403010C946B07A2
:100060000C9403010C9403010C9403010C94030100
:100070000C9403010C9403010C9403010C940301F0
:100080000C9403010C9403010C9403010C940301E0
:100090000C9403010C9403010C9403010C940301D0
:1000A0000C9403010C9403010C940301080B00024F
:1000B0000202000009040000010202000005240001
:1000C0001001052401010104240206052406000193
:1000D0000705810310004009040100020A00000026
:1000E00007050202400000070583024000000403E8
:1000F000090412010002EF02014041233780000190
:100100000102030141726475696E6F204C4C43001B
:1001100041726475696E6F204D6963726F000000F3
:100120000000250028002B002E00310000000000F8
:10013000240027002A002D003000070605040100D6
:10014000080A0B0C0D0900000000230026002900FE
:100150002C002F000404040404030405020202021C
:100160000403020202020606060606060404020250
:100170000204040408020110408040102040804026
:1001800080080204018040201002011080102040ED
:1001900040200000000200090F0000030401000CD1
:1001A000000000000000000000000000000000004F
:1001B0000000560AF90D11241FBECFEFDAE0DEBFB2
:1001C000CDBF12E0A0E0B1E0EAE8F5E202C00590A0
:1001D0000D92AE30B107D9F722E0AEE0B2E001C037
:1001E0001D92AE3DB207E1F710E0CAEDD0E004C0C9
:1001F0002197FE010E94B50EC93DD107C9F70E94A3
:100200000A0B0C94B8120C940000803181F028F491
:100210008F3051F090E080E00895813159F08231C3
:10022000C9F782ED92E008958AEB92E0089582EC9E
:1002300092E008958AEC92E00895AC0190E02FE5F9
:10024000FA01E90FF11D8081882319F020839F5F57
:10025000F7CF08958F3041F0803119F487E591E0B0
:10026000089590E080E0089588E591E00895E82FF2
:10027000F0E0EE0FFF1FEF59FE4FA081B181109704
:1002800069F0EC91F0E0E256FD4F908111968C916F
:10029000982381E0911101C080E008950E942A0115
:1002A0000097D1F3DC01EC91F0E0E256FD4F81E0E4
:1002B0009081F0CFFC0180912C02882311F13FB78F
:1002C000F89482E08093E9002091F200822F90E080
:1002D0001816190614F481E090E0882339F0289A62
:1002E00044E640932B024091F1004083222339F0F1
:1002F0002091F200211103C02BE62093E8003FBFBC
:1003000008958FEF9FEF08952FB7F89483E08093BF
:10031000E9009091E800892F807295FF04C09091C8
:10032000F20080E4891B2FBF089580912302811180
:100330000DC082E080931F0284E08093200210921F
:1003400022021092210281E0809323028FE192E049
:100350000895282F30E0F901EE56FE4F9491F901EF
:10036000ED58FE4F84912C5A3E4FF90124912223DF
:1003700009F45BC09923E9F091509F30D0F4E92F44
:10038000F0E0EB53FE4F0C94B50EF001F401D401F4
:10039000E801EC01D901D901D901F701FD01010200
:1003A00005020B02D9010F02909180009F77909374
:1003B0008000E22FF0E0EE0FFF1FEA5BFE4FA591F9
:1003C000B491EC91E82381E090E089F580E0089514
:1003D000909180009F7DEBCF90918000977FE7CF39
:1003E00094B59F7794BDE5CF94B59F7DFBCF909159
:1003F00090009F7790939000DCCF909190009F7D2C
:10040000F9CF90919000977FF5CF9091C0009F77A2
:100410009093C000CECF9091C0009F7DF9CF909176
:10042000C200977F9093C200C4CF80E090E008950F
:10043000823108F08251E82FF0E0E65CFE4FE49153
:1004400090917B008E2F880F880F80729F7D892B63
:1004500080937B00E770E064E0937C0080917A00F9
:10046000806480937A0080917A0086FDFCCF809131
:1004700078009091790008953FB7F89480911B021D
:1004800090911C02A0911D02B0911E0226B5A89B5E
:1004900005C02F3F19F00196A11DB11D3FBFBA2F16
:1004A000A92F982F8827BC01CD01620F711D811DD6
:1004B000911D42E0660F771F881F991F4A95D1F75B
:1004C00008958F929F92AF92BF92CF92DF92EF9258
:1004D000FF924B015C010E943C026B017C010E9477
:1004E0003C026C197D098E099F09683E73408105A5
:1004F0009105A8F321E0821A9108A108B10888EEBD
:10050000C80E83E0D81EE11CF11C81149104A104E3
:10051000B10429F7FF90EF90DF90CF90BF90AF909C
:100520009F908F9008954091100250911102209158
:100530000E0230910F0242175307B4F49091E80075
:100540009570E1F39091E80092FD19C08093F1005D
:10055000809110029091110201968F739927892B37
:1005600019F48EEF8093E8008091100290911102AF
:100570000196909311028093100281E0089580E02B
:100580000895EF92FF920F931F93CF93DF93F82E6E
:10059000192FE62E042F81E0860F880F0E94930208
:1005A00083E00E949302CF2DD12FEC0EFD2EF11C83
:1005B000CE15DF05B9F007FF13C0FE0184910E943C
:1005C0009302182F80E00E949302812321968111CB
:1005D000EFCFDF91CF911F910F91FF90EF90089592
:1005E0008881EDCF81E0F5CFDF92EF92FF920F93FC
:1005F0001F93CF93DF93D82E8A01EB017B01E40E8A
:10060000F51ECE15DF0559F0D7FE12C0FE0184910C
:100610000E94930221968111F4CF0FEF1FEFC801C2
:10062000DF91CF911F910F91FF90EF90DF90089590
:100630008881EECF0F931F93CF93DF931F92CDB797
:10064000DEB782E0898342E450E06CEA70E080E843
:100650000E94F4020E949501DC0112960D911C91FA
:100660000115110589F0D801ED91FC910280F3810B
:10067000E02DBE016F5F7F4FC801099597FD04C053
:10068000F80100851185ECCF89810F90DF91CF9122
:100690001F910F910895615030F02091F100FC01FD
:1006A00020830196F8CF289A84E680932B02089540
:1006B0008F929F92AF92BF92CF92DF92EF92FF9272
:1006C0000F931F93CF93DF936C017B018A0180917D
:1006D0000B01882309F45CC080912C02882309F463
:1006E00057C08091140280FF05C08091E0008260B5
:1006F0008093E000E801B12C8AEFA82E93E0892EC8
:100700002AE3922E209711F4BB20D9F10E94840194
:1007100081110AC0AA94AA20D9F161E070E080E0BA
:1007200090E00E946102EECF8C171D0611F00CF0D4
:100730008C2F9FB7F8948092E9002091E80025FD66
:1007400002C09FBFDFCF282F30E0C21BD30BF701C1
:10075000815020F041914093F100FACFE20EF31E58
:10076000BB2021F09092E800B12CEBCF8091E80003
:1007700085FDE7CF9092E800BB24B394209709F35E
:10078000F3CF5D9A84E680931302101611063CF0B5
:1007900081E090E0F6019383828310E000E0C801DD
:1007A000DF91CF911F910F91FF90EF90DF90CF904D
:1007B000BF90AF909F908F900895CF93DF931F923B
:1007C000CDB7DEB76983DC01ED91FC910280F38146
:1007D000E02D41E050E0BE016F5F7F4F09950F9023
:1007E000DF91CF91089583E08093E9008091F2003A
:1007F000882319F08AE38093E80008950E94840119
:1008000090E00895CF93DF931F92CDB7DEB7FC0140
:100810008485958597FD08C02FEF3FEF35872487A6
:100820000F90DF91CF910895CE0101960E945A0159
:10083000019719F4898190E0F3CF8FEF9FEFF0CF0C
:100840000F931F93CF93DF931F92CDB7DEB78C0129
:10085000FC018485958597FF0BC0CE0101960E940F
:100860005A01019771F4898190E0F8019587848796
:10087000F801848595850F90DF91CF911F910F919D
:1008800008958FEF9FEFF1CFFC018485958597FD4B
:100890000BC09FB7F89482E08093E9008091F2004A
:1008A0009FBF90E0019608959FB7F89482E08093EF
:1008B000E9008091F2009FBF90E0089508950895A7
:1008C000CF93DF93EC018A810E94A90121E0892B5B
:1008D00009F020E02C83822FDF91CF9108954F9271
:1008E0005F926F927F928F929F92AF92BF92CF92C0
:1008F000DF92EF92FF92CF93DF9300D000D0CDB77D
:10090000DEB76B017C01F901DA018D909D90AD900D
:10091000BC9013978C149D04AE04BF04BCF060819E
:100920007181828193810F900F900F900F90DF91D2
:10093000CF91FF90EF90DF90CF90BF90AF909F90BE
:100940008F907F906F905F904F90089514968D9147
:100950009D910D90BC91A02D89839A83AB83BC831C
:10096000648175818681978129813A814B815C817F
:10097000C216D306E406F506B4F6408051806280C4
:10098000738084149504A604B70429F42617370746
:1009900048075907E9F0A7019601281939094A09BA
:1009A0005B0964197509860997090E94A50E2981BA
:1009B0003A814B815C81281939094A095B090E94F7
:1009C0004A0ECA01B901640D751D861D971DABCF76
:1009D000C701B601A8CFFC0101900020E9F73197CB
:1009E000AF01481B590BBC018DE292E00C945803F7
:1009F0006F927F928F929F92AF92BF92CF92DF922F
:100A0000EF92FF920F931F93CF93DF93CDB7DEB793
:100A1000AE970FB6F894DEBF0FBECDBF89E991E067
:100A20000E94EB048091020290910302A0910402C3
:100A30008CA79DA7AEA78091050290910602A09178
:100A4000070289A79AA7ABA785E00E9437018E010C
:100A5000045D1F4F811103C0C8010E941D0189E080
:100A60000E9437019E01275D3F4F7901811103C02C
:100A7000C9010E941D01FF92EF928091A7028F93FE
:100A80008091A6028F938091A5028F938091A402FA
:100A90008F931F930F938091A2021F928F9388EAE6
:100AA00091E09F938F938E010F5F1F4F1F930F93C2
:100AB0000E94E00FC8010E94EB048DE00E94370104
:100AC0000FB6F894DEBF0FBECDBF7CE3F72E8111C9
:100AD00002C06FE5F62E8BE00E9437015EE5E52E41
:100AE000811102C04FE5E42E8CE00E94370136E709
:100AF000D32E811102C02FE5D22E8EE00E94370145
:100B00009EE3C92E811102C08FE5C82E81E00E94AC
:100B10003701B1E49B2E811102C0AFE59A2E82E02D
:100B20000E943701F2E48F2E811102C0EFE58E2E74
:100B300083E00E94370178E5772E811102C06FE5CE
:100B4000762E84E00E94370159E5652E811102C09E
:100B50004FE5642E88E00E9437013EE3A32E811109
:100B600002C02FE5A22E87E00E9437019CE3B92E38
:100B7000811102C08FE5B82E80E00E9437018823E2
:100B800009F48EC088E51F926F921F927F921F9288
:100B90008F921F929F921F92AF921F928F931F92DC
:100BA000BF921F92CF921F92DF921F92EF921F92DD
:100BB000FF9284EC91E09F938F931F930F930E9479
:100BC000E00FC8010E94EB04809108029091090295
:100BD000A0910A028EA39FA3A8A780910B029091D7
:100BE0000C02A0910D028BA39CA3ADA386E00E94F2
:100BF00037010FB6F894DEBF0FBECDBF9E012A5D50
:100C00003F4F6901811103C0C9010E941D018AE0A3
:100C10000E9437019E012D5D3F4F7901811103C074
:100C2000C9010E941D018091A3021F928F93DF9240
:100C3000CF92FF92EF928091AB028F938091AA02A4
:100C40008F938091A9028F938091A8028F9383EE56
:100C500091E09F938F931F930F930E94E00FC80121
:100C60000E94EB048FEF91E00E94EB040FB6F89422
:100C7000DEBF0FBECDBFAE960FB6F894DEBF0FBE7F
:100C8000CDBFDF91CF911F910F91FF90EF90DF903B
:100C9000CF90BF90AF909F908F907F906F9008956E
:100CA0008FE571CF8091B302882341F08091B20229
:100CB000882321F01092B2020C94F8040895CF9288
:100CC000DF92EF92FF921F93CF93DF93182F6A0169
:100CD0007B010E942A01EC01892B29F1812F0E94BE
:100CE00005012FE431E0AC01C701B6010E946F0499
:100CF000E881F0E0E256FD4F2081C22ED12CF12C8C
:100D0000E12C6C157D058E059F0569F0608381E0FF
:100D10008093B202DF91CF911F91FF90EF90DF900F
:100D2000CF900C945206DF91CF911F91FF90EF90DE
:100D3000DF90CF9008950F931F93CF93DF93C82F29
:100D4000D62FE82FF0E0EE0FFF1FEF59FE4F008186
:100D500011818C2F01151105E1F00E9437018D17CB
:100D600081F1D801EC91F0E0E256FD4F90811196AF
:100D70008C91DD2359F0892B808381E08093B2022E
:100D8000DF91CF911F910F910C945206809589238A
:100D9000F3CF0E9405010097A1F0DD2361F0FC0173
:100DA00044815581668177818C2FDF91CF911F918E
:100DB0000F910C945F06DC014D915D916D917C91DA
:100DC000F3CFDF91CF911F910F9108954F925F92D2
:100DD0006F927F928F929F92AF92BF92EF92FF920B
:100DE0000F931F93CF93DF93C82F2A013B01480134
:100DF00059010E9405017C0127E431E0AC01C301E7
:100E0000B2010E946F04162FD72F27E431E0A7010B
:100E1000C501B4010E946F04E9E5F1E0C23111F0AF
:100E2000EDE5F1E0812F9D2F2181A22FB0E0A256A8
:100E3000BD4F2C913081A32FB0E0A256BD4F3C9105
:100E40002327322723278217930769F0A081B0E078
:100E5000A256BD4F1C93A181B0E0A256BD4FDC93BA
:100E600081E08093B202C23119F4C9E5D1E002C039
:100E7000CDE5D1E0AB81B0E0A256BD4F2C91AA8167
:100E8000B0E0A256BD4F3C9123273227232762179B
:100E9000730769F0A281B0E0A256BD4F6C93E38165
:100EA000F0E0E256FD4F708381E08093B202DF9163
:100EB000CF911F910F91FF90EF90BF90AF909F90B7
:100EC0008F907F906F905F904F900C9452060C948F
:100ED000570F0C94570F1F920F920FB60F921124B9
:100EE0002F933F938F939F93AF93BF93809117025C
:100EF00090911802A0911902B0911A023091160235
:100F000023E0230F2D3758F50196A11DB11D209325
:100F100016028093170290931802A0931902B093BF
:100F20001A0280911B0290911C02A0911D02B091A7
:100F30001E020196A11DB11D80931B0290931C02FD
:100F4000A0931D02B0931E02BF91AF919F918F910C
:100F50003F912F910F900FBE0F901F90189526E88C
:100F6000230F0296A11DB11DD2CF1F920F920FB673
:100F70000F9211248F939F938091E1009091E10053
:100F8000937F9093E10083FF0FC01092E90091E0FE
:100F90009093EB001092EC0092E39093ED0010928E
:100FA0002C0298E09093F00082FF22C093E090938F
:100FB000E9009091F200992319F09AE39093E800E8
:100FC00090911302992341F09091130291509093C4
:100FD0001302911101C05D9890912B02992341F069
:100FE00090912B02915090932B02911101C028985F
:100FF00084FF18C08091E2008E7E81608093E200C1
:101000008091E1008F7E8093E100809114028E7EBA
:101010008061809314029F918F910F900FBE0F906B
:101020001F90189580FFF7CF8091E2008E7E80613F
:101030008093E2008091E1008E7E8093E1008091B8
:1010400014028E7E8160E5CF1F920F920FB60F9231
:101050001124CF92DF92EF92FF920F931F932F9361
:101060003F934F935F936F937F938F939F93AF9330
:10107000BF93EF93FF93CF93DF93CDB7DEB76C971A
:10108000DEBFCDBF1092E9008091E80083FF25C04C
:1010900068E0CE0145960E944B0382EF8093E80002
:1010A0008D8987FF39C09091E80090FFFCCF982F81
:1010B000907609F034C19E894F89588D2F89F88C1C
:1010C000911131C0803861F5809115028093F10053
:1010D0001092F1008EEF8093E8006C960FB6F894B2
:1010E000DEBF0FBECDBFDF91CF91FF91EF91BF91DA
:1010F000AF919F918F917F916F915F914F913F91B0
:101100002F911F910F91FF90EF90DF90CF900F9054
:101110000FBE0F901F9018959EEF9093E800C7CFD9
:101120001092F100D5CF913059F48111D3CF4130D5
:10113000510581F6809115028D7F80931502CACFEB
:10114000933049F48111C6CF4130510519F6809191
:1011500015028260F2CF953041F48091E80080FF63
:10116000FCCF20682093E300B5CF963009F0A9C0EA
:101170000B8D1C8D22E01092E9001092110210924A
:101180001002F2122EC010920F0210920E020E9454
:101190001A031F8299E09983FA8291E09E8390EA74
:1011A00098879AEF99872091100230911102275F5A
:1011B0003F4F3C832B838D831092E90010921102E4
:1011C0001092100210930F0200930E0249E050E0BB
:1011D000BE016F5F7F4F80E00E94F4020E941A03FD
:1011E00079CF10930F0200930E020E949501DC014B
:1011F00012960D911C910115110509F451C1D801E8
:10120000ED91FC910480F581E02DBE016B5E7F4F76
:10121000C8010995009709F03EC1F80100851185C4
:10122000EACFF3E0FF120EC08F89882309F440C093
:10123000823061F440E86DE080E191E00E94C102FB
:10124000811148CF81E28093EB0047CF813029F4B0
:1012500040E86BE084E091E0F1CF833099F70E94A1
:101260009501DC011296ED90FC908E010F5F1F4FEF
:101270006801E114F10479F0D701ED91FC91068049
:10128000F781E02DB801C7010995080F111DF7017D
:10129000E084F184EECFD8011C92F6010190002089
:1012A000E9F73197BF016C197D0940E0C601C6CF4F
:1012B0006EEE70E0FB01449150E080E80E94F40281
:1012C00009CF973009F4BECF983021F481E08093A4
:1012D000F10000CF993009F0FDCE837009F0B2CF54
:1012E000E1E3F1E081E031E096E32191222371F026
:1012F0008093E9003093EB00DF0111972C9120934C
:10130000EC009093ED008F5F873079F78EE7809344
:10131000EA001092EA008F8980932C02DBCE8B8D3D
:101320009C8D1092E900109211021092100290937D
:101330000F0280930E02898D811192C08E899D8942
:10134000913A49F4813209F07DCF47E050E064E002
:1013500071E080E0B3CF913209F074CF833269F449
:101360008F89988DB0E0A0E08093000190930101F7
:10137000A0930201B0930301ADCE803269F4809155
:10138000E80082FFFCCF67E084E091E00E944B031D
:101390008BEF8093E8009ECE823209F09BCE8F893E
:1013A00080930B01EEEFFFE7859194918B3F9C4D6D
:1013B00051F1E0E0F8E08091040190910501A091E5
:1013C0000601B0910701803B9440A105B105F1F4FD
:1013D00080910B0180FD1AC0EE3F8AE0F80789F585
:1013E00087E797E791838083809160008093120262
:1013F00088E19BE00FB6F894A895809360000FBE3B
:101400009093600067CEEEEFFAE0D5CF80819181B6
:101410008737974709F05ECEA89580916000886174
:10142000809360008091120280936000EE3F2AE07A
:10143000F20789F08091FE0A9091FF0A91838083E0
:1014400049CE808191818737980751F29093FF0AA6
:101450008093FE0AC5CF1092FF0A1092FE0A3ACE80
:101460000E949501DC0112960D911C910115110548
:1014700009F4E8CED801ED91FC910190F081E02DC6
:10148000BE016B5E7F4FC8010995811123CEF80123
:1014900000851185EBCF181619060CF41BCED2CEA1
:1014A000F1E0FF12BECE62EF70E004CFCF93109256
:1014B000300210922F0288EE93E0A0E0B0E080931B
:1014C000310290933202A0933302B09334028BE83E
:1014D00091E090932E0280932D028FEF9FEF9093D7
:1014E0003A028093390210927E0210927D0210928D
:1014F000800210927F02109282021092810210925A
:1015000084021092830281E080939D02E5E8F2E07C
:101510001192119282E0ED39F807D1F7EEE9F2E08D
:101520001192B2E0E23BFB07D9F71092B50210929C
:10153000B6028091B5029091B602E0EAF2E082E153
:10154000DF011D928A95E9F7C1E0C093B2020E94C3
:10155000520610929E0284E180939F021092B40280
:101560001092B6021092B5021092B7021092BA020F
:101570001092BB021092BC021092BD028FEF90E05D
:10158000A0E0B0E08093BE029093BF02A093C0029F
:10159000B093C1021092C2021092C3021092C40210
:1015A0001092C5028093C6029093C702A093C8020E
:1015B000B093C90240E050E86FEF7FEF4093CA025A
:1015C0005093CB026093CC027093CD028FEF9FE7D4
:1015D000A0E0B0E08093CE029093CF02A093D0021F
:1015E000B093D1024093D2025093D3026093D402BD
:1015F0007093D5028093D6029093D702A093D8021D
:10160000B093D9021092B9021092B802C093B302FB
:10161000CF910895789484B5826084BD84B581604B
:1016200084BD85B5826085BD85B5816085BD8091AD
:101630006E00816080936E00109281008091810025
:10164000826080938100809181008160809381001D
:101650008091800081608093800080919100826001
:10166000809391008091910081608093910080919E
:1016700090008160809390008091C100846080938D
:10168000C1008091C10082608093C1008091C1003F
:1016900081608093C1008091C30081608093C3000A
:1016A0008091C00082608093C0008091C200816000
:1016B0008093C20080917A00846080937A00809148
:1016C0007A00826080937A0080917A0081608093B2
:1016D0007A0080917A00806880937A0010922C02C0
:1016E00010921502109214028091D70081608093AD
:1016F000D70080EA8093D80089B5806189BD89B51B
:10170000826089BD09B400FEFDCF61E070E080E039
:1017100090E00E9461028091D8008F7C806180936C
:10172000D8008091E000807F8093E0008091E1000C
:101730008E7E8093E1008DE08093E200559A209A9E
:101740005D98289868EB7BE080E090E00E94610261
:101750001092B3021092CA021092CB021092CC02E5
:101760001092CD028FEF93E0A0E0B0E08093CE0224
:101770009093CF02A093D002B093D1021092D202E4
:101780001092D3021092D4021092D5028093D60206
:101790009093D702A093D802B093D90225EF3FEFE0
:1017A0002330310510F1F901E258FE4F4491F9015F
:1017B000E15AFE4F84918823C1F090E0880F991F71
:1017C000FC01E45DFE4FC591D491FC01E25EFE4F49
:1017D000A591B4919FB7F8945881842F8095852363
:1017E0008883EC91E42BEC939FBF2F5F3F4F263013
:1017F0003105B1F685E090E00E94BB0EFC01C3E428
:10180000D1E0D183C08381E082830CE4038314821E
:10181000F0938602E093850285E090E00E94BB0E83
:10182000FC01D183C08382E082838BE483831482B2
:10183000F0938802E093870285E090E00E94BB0E5F
:10184000FC01D183C08388E0828312E51383148274
:10185000F0938A02E093890285E090E00E94BB0E3B
:10186000FC01D183C08389E0828382E48383148274
:10187000F0938C02E0938B0285E090E00E94BB0E17
:10188000FC01D183C0838AE0828381E48383148254
:10189000F0938E02E0938D0285E090E00E94BB0EF3
:1018A000FC01D183C0838EE0828389E58383148227
:1018B000F0939002E0938F0285E090E00E94BB0ECF
:1018C000FC01D183C0838FE082838DE48383148203
:1018D000F0939202E093910285E090E00E94BB0EAB
:1018E000FC01D183C08380E1828388E583831482F5
:1018F000F0939402E093930285E090E00E94BB0E87
:10190000FC011282038314828BE3E82E81E0F82E1F
:10191000F182E082F0938202E093810285E090E020
:101920000E94BB0EFC0187E0828313831482F18244
:10193000E082F0938402E093830286E090E00E94CC
:10194000BB0EFC01118210821382128285E1848316
:1019500084E18583F0937E02E0937D0286E090E04F
:101960000E94BB0EFC01118210821382128283E15D
:10197000848382E18583F0938002E0937F0285E097
:1019800090E00E94BB0EFC01D183C08383E0828380
:1019900085E583831482F0939602E093950285E0B7
:1019A00090E00E94BB0EFC01D183C08385E082835E
:1019B00084E483831482F0939802E093970285E095
:1019C00090E00E94BB0EFC01D183C08384E082833F
:1019D00003831482F0939A02E093990285E090E0E9
:1019E0000E94BB0EFC01D183C08386E082831383F7
:1019F0001482F0939C02E0939B02FF24F394C0E0D6
:101A0000D0E0E0918102F091820282810E94A901DE
:101A1000F89EA001F99E500D581B112441505F4FB4
:101A2000052E000C660B770B8FE00E945F06E0919D
:101A30008302F091840282810E94A901F89EA00194
:101A4000F99E500D581B112441505F4F052E000C7C
:101A5000660B770B80E10E945F0680918502909172
:101A600086020E946004682F85E00E949B06809198
:101A70008702909188020E946004682F87E00E948C
:101A80009B068091890290918A020E946004682FCF
:101A900086E00E949B0680918B0290918C020E94AE
:101AA0006004682F82E00E949B0680918D029091D5
:101AB0008E020E946004682F81E00E949B06809144
:101AC0008F02909190020E946004682F84E00E942F
:101AD0009B0680919102909192020E946004682F6F
:101AE00088E00E949B0680919302909194020E944C
:101AF0006004682F83E00E949B06E0917D02F091D4
:101B00007E0285810E9418028C01E0917D02F09195
:101B10007E0284810E941802012E000C220B330BDE
:101B2000AC01990F660B770B81E10E94E606E0910C
:101B30007F02F091800285810E9418028C01E09161
:101B40007F02F091800284810E941802012E000C15
:101B5000220B330BAC01990F660B770B82E10E94CD
:101B6000E60680919B0290919C020E946004182FCF
:101B70008091990290919A020E946004082F8091AE
:101B80009702909198020E946004E82E809195023D
:101B9000909196020E9460048111E12C002319F0BB
:101BA000012F0F2510E0D090B3021092B302682FDE
:101BB0008BE00E949B066E2D8CE00E949B06602F9E
:101BC0008DE00E949B06612F8EE00E949B06D092C2
:101BD000B3020E9452068091B202882321F0109233
:101BE000B2020E94F804209709F40BCF0E94000073
:101BF00008CFCF93DF93CDE7D2E088859985009712
:101C000039F0DC01ED91FC910280F381E02D099522
:101C1000198618862296B2E0C539DB0771F78091E4
:101C2000810290918202009739F0DC01ED91FC91E4
:101C30000280F381E02D09951092820210928102B8
:101C40008091830290918402009739F0DC01ED913C
:101C5000FC910280F381E02D09951092840210928C
:101C6000830280917D0290917E02009711F00E9484
:101C7000570F10927E0210927D0280917F02909108
:101C80008002009721F0DF91CF910C94570FDF91E4
:101C9000CF910895052E97FB1EF400940E94610ECB
:101CA00057FD07D00E94740E07FC03D04EF40C942D
:101CB000610E50954095309521953F4F4F4F5F4FA6
:101CC000089590958095709561957F4F8F4F9F4FA8
:101CD00008950E94960EA59F900DB49F900DA49F0D
:101CE000800D911D11240895A1E21A2EAA1BBB1B81
:101CF000FD010DC0AA1FBB1FEE1FFF1FA217B307D8
:101D0000E407F50720F0A21BB30BE40BF50B661FED
:101D1000771F881F991F1A9469F7609570958095B1
:101D200090959B01AC01BD01CF010895A29FB00128
:101D3000B39FC001A39F700D811D1124911DB29FFF
:101D4000700D811D1124911D0895DB018F939F93C8
:101D50000E94690EBF91AF91A29F800D911DA39F1C
:101D6000900DB29F900D11240895EE0FFF1F059066
:101D7000F491E02D09940F931F93CF93DF9382305A
:101D8000910510F482E090E0E091DC02F091DD0238
:101D900030E020E0B0E0A0E0309799F42115310563
:101DA00009F44AC0281B390B24303105D8F58A8143
:101DB0009B816115710589F1FB0193838283FE018B
:101DC00011C0408151810281138148175907E0F009
:101DD0004817590799F4109761F012960C931297CF
:101DE00013961C933296CF01DF91CF911F910F91E3
:101DF00008950093DC021093DD02F4CF2115310524
:101E000051F04217530738F0A901DB019A01BD01D7
:101E1000DF01F801C1CFEF01F9CF9093DD0280938C
:101E2000DC02CDCFFE01E20FF31F8193919322508C
:101E3000310939832883D7CF2091DA023091DB0230
:101E4000232B41F420910E0130910F013093DB02DE
:101E50002093DA0220910C0130910D0121153105FA
:101E600041F42DB73EB74091100150911101241B50
:101E7000350BE091DA02F091DB02E217F307A0F4F0
:101E80002E1B3F0B2817390778F0AC014E5F5F4FD0
:101E90002417350748F04E0F5F1F5093DB02409325
:101EA000DA02819391939FCFF0E0E0E09CCFCF9353
:101EB000DF930097E9F0FC01329713821282A09120
:101EC000DC02B091DD02ED0130E020E01097A1F4DA
:101ED00020813181820F931F2091DA023091DB0241
:101EE0002817390709F061C0F093DB02E093DA02AA
:101EF000DF91CF910895EA01CE17DF07E8F54A8117
:101F00005B819E0141155105B1F7E901FB83EA832D
:101F100049915991C40FD51FEC17FD0761F48081D9
:101F200091810296840F951FE901998388838281AC
:101F300093819B838A83F0E0E0E012968D919C91DF
:101F400013970097B9F52D913C911197CD01029609
:101F5000820F931F2091DA023091DB022817390794
:101F600039F6309751F51092DD021092DC02B093F1
:101F7000DB02A093DA02BCCFD383C28340815181BC
:101F8000840F951FC817D90761F44E5F5F4F888192
:101F90009981480F591F518340838A819B81938384
:101FA00082832115310509F0B0CFF093DD02E09373
:101FB000DC029ECFFD01DC01C0CF13821282D7CF9D
:101FC000AEE0B0E0E6EEFFE00C948F120D891E89C2
:101FD00086E08C831A8309838FEF9FE79E838D832E
:101FE000AE01475E5F4F6F89788DCE0101960E94EA
:101FF00003102F813885020F131FF80110822E96CF
:10200000E4E00C94AB12ABE0B0E0E9E0F0E10C945A
:1020100081127C013B018A01FC01178216828381B7
:1020200081FFC8C1CE0101965C01F7019381F301E4
:1020300093FD859193FF81913F01882309F453C15A
:10204000853239F493FD859193FF81913F0185326B
:1020500029F4B70190E00E94F311E7CF912C212CD5
:10206000312CFFE1F31538F08B3211F190F480320E
:1020700009F1833229F137FC3CC020ED280F2A30CA
:1020800050F536FE20C08AE0989E200D1124922E35
:1020900006C08D3291F0803371F7689430F8F30107
:1020A00093FD859193FF81913F018111DACF21C08A
:1020B000689431F8689432F8F2CF689433F8EFCF2F
:1020C000689434F8ECCFEAE02E9E200D1124222EE5
:1020D000689435F8E4CF8E3229F436FC04C1689454
:1020E00036F8DDCF8C3619F4689437F8D8CF8836B7
:1020F000B1F2982F9F7D95549330E0F08336A1F193
:102100008337C1F1833509F063C02801F2E04F0E37
:10211000511CF801C080D180692D70E036FC02C0EE
:102120006FEF7FEFC6010E94DD114C01689437F814
:1021300082010AC00C5F1F4FFFE3F9838824839458
:10214000912C6501E89437F833FE2DC0522C811490
:10215000910471F5552009F468CFB70180E290E051
:102160000E94F3115A94F6CFF801808189830E5FA3
:102170001F4FE4CF2801F2E04F0E511CF801C08040
:10218000D180692D70E036FC02C06FEF7FEFC60191
:102190000E94E8114C018201D5CFB70180E290E0A6
:1021A0000E94F3112A942814190409F0B0F7CECF35
:1021B000F60137FC859137FE81916F01B70190E000
:1021C0000E94F31151105A94F1E08F1A9108BFCF79
:1021D000843619F0893609F077C0F80137FE6BC0F4
:1021E00060817181828193810C5F1F4FF32DFF7697
:1021F0003F2E97FF09C090958095709561957F4F10
:102200008F4F9F4F689437F82AE030E0A5010E9475
:102210002312C82ECA188C2C432C36FE0CC0E8940E
:1022200040F8C91440F434FE05C032FC03C0F32D5D
:10223000FE7E4F2E892C44FE95C0FE01EC0DF11D53
:102240008081803309F087C0242D297E422E842D81
:102250008870582E43FC95C040FE8FC09C2C821481
:1022600018F42C0C922C981844FE91C0B70180E30E
:1022700090E00E94F31142FE09C088E790E041FE21
:1022800002C088E590E0B7010E94F311C91408F478
:102290008AC0CA94D12C9FEFC91AD90ACA0CDB1C78
:1022A000F60182916F01B70190E00E94F311AC1426
:1022B000BD04B1F74FCF60817181072E000C880BF0
:1022C000990B0E5F1F4F92CFD32CE894D4F82AE0DD
:1022D00030E0853739F1232D297FD22E8F3601F159
:1022E00048F48835A9F0F701868197812B96E2E1C1
:1022F0000C949D12803749F08837A9F7D4FE02C0AC
:102300006894D2F820E130E00DC06894D4F8F6CF9C
:1023100034FE03C0822F8660D82E20E132E002C056
:1023200028E030E0F801D7FE0FC060817181828122
:1023300093810C5F1F4FA5010E942312C82ECA185B
:102340003D2CE89437F867CF6081718190E080E0A0
:102350000E5F1F4FF0CF42FC02C0839478CF83946E
:10236000839475CF842D867809F471CFF6CFB701A9
:1023700080E290E00E94F31183948214C0F3512C08
:1023800073CF522C5818821408F46ECFF8CF842DD6
:10239000867809F47BCF8BE241FE80E247FC8DE238
:1023A000B70190E071CFB70180E390E00E94F31194
:1023B0009A946CCF8FEF9FEF99CFFC0105906150FD
:1023C00070400110D8F7809590958E0F9F1F08954B
:1023D000FC016150704001900110D8F780959095F4
:1023E0008E0F9F1F08950F931F93CF93DF93182F86
:1023F000092FEB018B8181FD09C01FEF0FEF812FAA
:10240000902FDF91CF911F910F91089582FF14C0FB
:102410002E813F818C819D81281739073CF4E8810A
:10242000F981CF0101969983888310838E819F81E2
:1024300001969F838E83E3CFE885F985812F0995E7
:10244000892BA1F3DACFFA01AA27283051F12031E4
:1024500081F1E8946F936E7F6E5F7F4F8F4F9F4F38
:10246000AF4FB1E03ED0B4E03CD0670F781F891F7A
:102470009A1FA11D680F791F8A1F911DA11D6A0F48
:10248000711D811D911DA11D20D009F468943F91FB
:102490002AE0269F11243019305D3193DEF6CF01FA
:1024A0000895462F4770405D4193B3E00FD0C9F7C0
:1024B000F6CF462F4F70405D4A3318F0495D31FD2D
:1024C0004052419302D0A9F7EACFB4E0A695979580
:1024D000879577956795BA95C9F700976105710556
:1024E00008959B01AC010A2E0694579547953795A0
:1024F0002795BA95C9F7620F731F841F951FA01DFA
:1025000008952F923F924F925F926F927F928F9297
:102510009F92AF92BF92CF92DF92EF92FF920F9372
:102520001F93CF93DF93CDB7DEB7CA1BDB0B0FB67C
:10253000F894DEBF0FBECDBF09942A883988488839
:102540005F846E847D848C849B84AA84B984C884CF
:10255000DF80EE80FD800C811B81AA81B981CE0FC6
:10256000D11D0FB6F894DEBF0FBECDBFED010895AB
:1025700010E0CAEDD0E004C0FE010E94B50E219625
:0A258000CB3DD107C9F7F894FFCF57
:10258A00FFFFFFFF00E10000000000000000DE0284
:10259A0080000208020402020201028002400210C4
:1025AA0002200302030103800340032003100304F3
:1025BA0000C18081000000000000005E046707007F
:1025CA000000005F0469070080FFFFFF7F00000032
:1025DA00000000FF00000005040A0B0C0D060708A6
:1025EA00092E012C012A0128012601240122012099
:1025FA00011E011C011A0118011601140112010021
:10260A000000001C011A0100000000DD035803FE4F
:10261A0003F30344040204200458496E70757420BD
:10262A0044656275673A20004C543A202533752078
:10263A002573204C3A282536642C202536642C2014
:10264A0025732900202563256325632563207C20C3
:10265A00256325632563207C20256325632563255F
:10266A00632000523A282536642C202536642C2013
:10267A002573292025732052543A20253375000DDD
:0E268A000A004C42004C330052420052330012
:00000001FF
